:1001030011083F065B4F666D7D077F6F777C395E15
:03011300797100FF
:0B011700EF1FAC0670011E4C70F622BA
:10008F00E4FDEDC39408748094805067EDB40800CC
:10009F00504D9000A8F82828730200C00200C40237
:1000AF0000C80200CC0200D00200D80200E002001B
:1000BF00E8D2A4800ED2A48012D2A48016D2A4803B
:1000CF001AC2A4D2A3D2A28016C2A4D2A3C2A28063
:1000DF000EC2A4C2A3D2A28006C2A4C2A3C2A2749B
:1000EF00082DF8E6F5807F647E00120117E4F58095
:0300FF000D808FE2
:0101020022DA
:0501220012008F80FBBC
:03000000020003F8
:0C000300787FE4F6D8FD75811802004AF1
:10000F00020122E493A3F8E493A34003F68001F2E4
:10001F0008DFF48029E493A3F85407240CC8C333F2
:10002F00C4540F4420C8834004F456800146F6DFC1
:10003F00E4800B0102040810204080900103E47E4D
:10004F00019360BCA3FF543F30E509541FFEE493B6
:10005F00A360010ECF54C025E060A840B8E493A37D
:10006F00FAE493A3F8E493A3C8C582C8CAC583CAA8
:10007F00F0A3C8C582C8CAC583CADFE9DEE780BE60
:0101160000E8
:00000001FF
