:0300000002007F7C
:0C007F00787FE4F6D8FD758107020003CD
:0E00700000007F2B7E067DCBDDFEDEFCDFFA7E
:01007E00225F
:10000300E4FBFAC2A5C2A6D2A6E4F580120070757D
:1000130080FF0BBB00010AEB64034A70ECE4FAFBBC
:10002300AF037E007401A807088005C333CE33CE27
:10003300D8F94E70047F0180027F008F800BBB00D4
:10004300010AEB64084A70D8120070E4FAFBAF03AC
:10005300A8077401088002C333D8FC42800BBB009D
:0D006300010AEB64084A70E612007080B0DC
:00000001FF
